{
  "contractName": "MigrationToken",
  "abi": [
    {
      "inputs": [],
      "stateMutability": "nonpayable",
      "type": "constructor"
    },
    {
      "anonymous": false,
      "inputs": [
        {
          "indexed": true,
          "internalType": "address",
          "name": "owner",
          "type": "address"
        },
        {
          "indexed": true,
          "internalType": "address",
          "name": "spender",
          "type": "address"
        },
        {
          "indexed": false,
          "internalType": "uint256",
          "name": "value",
          "type": "uint256"
        }
      ],
      "name": "Approval",
      "type": "event"
    },
    {
      "anonymous": false,
      "inputs": [
        {
          "indexed": true,
          "internalType": "address",
          "name": "previousOwner",
          "type": "address"
        },
        {
          "indexed": true,
          "internalType": "address",
          "name": "newOwner",
          "type": "address"
        }
      ],
      "name": "OwnershipTransferred",
      "type": "event"
    },
    {
      "anonymous": false,
      "inputs": [
        {
          "indexed": true,
          "internalType": "address",
          "name": "from",
          "type": "address"
        },
        {
          "indexed": true,
          "internalType": "address",
          "name": "to",
          "type": "address"
        },
        {
          "indexed": false,
          "internalType": "uint256",
          "name": "value",
          "type": "uint256"
        }
      ],
      "name": "Transfer",
      "type": "event"
    },
    {
      "inputs": [
        {
          "internalType": "address",
          "name": "owner",
          "type": "address"
        },
        {
          "internalType": "address",
          "name": "spender",
          "type": "address"
        }
      ],
      "name": "allowance",
      "outputs": [
        {
          "internalType": "uint256",
          "name": "",
          "type": "uint256"
        }
      ],
      "stateMutability": "view",
      "type": "function",
      "constant": true
    },
    {
      "inputs": [
        {
          "internalType": "address",
          "name": "spender",
          "type": "address"
        },
        {
          "internalType": "uint256",
          "name": "amount",
          "type": "uint256"
        }
      ],
      "name": "approve",
      "outputs": [
        {
          "internalType": "bool",
          "name": "",
          "type": "bool"
        }
      ],
      "stateMutability": "nonpayable",
      "type": "function"
    },
    {
      "inputs": [
        {
          "internalType": "address",
          "name": "account",
          "type": "address"
        }
      ],
      "name": "balanceOf",
      "outputs": [
        {
          "internalType": "uint256",
          "name": "",
          "type": "uint256"
        }
      ],
      "stateMutability": "view",
      "type": "function",
      "constant": true
    },
    {
      "inputs": [
        {
          "internalType": "uint256",
          "name": "amount",
          "type": "uint256"
        }
      ],
      "name": "burn",
      "outputs": [],
      "stateMutability": "nonpayable",
      "type": "function"
    },
    {
      "inputs": [
        {
          "internalType": "address",
          "name": "account",
          "type": "address"
        },
        {
          "internalType": "uint256",
          "name": "amount",
          "type": "uint256"
        }
      ],
      "name": "burnFrom",
      "outputs": [],
      "stateMutability": "nonpayable",
      "type": "function"
    },
    {
      "inputs": [],
      "name": "decimals",
      "outputs": [
        {
          "internalType": "uint8",
          "name": "",
          "type": "uint8"
        }
      ],
      "stateMutability": "view",
      "type": "function",
      "constant": true
    },
    {
      "inputs": [
        {
          "internalType": "address",
          "name": "spender",
          "type": "address"
        },
        {
          "internalType": "uint256",
          "name": "subtractedValue",
          "type": "uint256"
        }
      ],
      "name": "decreaseAllowance",
      "outputs": [
        {
          "internalType": "bool",
          "name": "",
          "type": "bool"
        }
      ],
      "stateMutability": "nonpayable",
      "type": "function"
    },
    {
      "inputs": [
        {
          "internalType": "address",
          "name": "spender",
          "type": "address"
        },
        {
          "internalType": "uint256",
          "name": "addedValue",
          "type": "uint256"
        }
      ],
      "name": "increaseAllowance",
      "outputs": [
        {
          "internalType": "bool",
          "name": "",
          "type": "bool"
        }
      ],
      "stateMutability": "nonpayable",
      "type": "function"
    },
    {
      "inputs": [],
      "name": "name",
      "outputs": [
        {
          "internalType": "string",
          "name": "",
          "type": "string"
        }
      ],
      "stateMutability": "view",
      "type": "function",
      "constant": true
    },
    {
      "inputs": [],
      "name": "owner",
      "outputs": [
        {
          "internalType": "address",
          "name": "",
          "type": "address"
        }
      ],
      "stateMutability": "view",
      "type": "function",
      "constant": true
    },
    {
      "inputs": [],
      "name": "renounceOwnership",
      "outputs": [],
      "stateMutability": "nonpayable",
      "type": "function"
    },
    {
      "inputs": [],
      "name": "symbol",
      "outputs": [
        {
          "internalType": "string",
          "name": "",
          "type": "string"
        }
      ],
      "stateMutability": "view",
      "type": "function",
      "constant": true
    },
    {
      "inputs": [],
      "name": "totalSupply",
      "outputs": [
        {
          "internalType": "uint256",
          "name": "",
          "type": "uint256"
        }
      ],
      "stateMutability": "view",
      "type": "function",
      "constant": true
    },
    {
      "inputs": [
        {
          "internalType": "address",
          "name": "to",
          "type": "address"
        },
        {
          "internalType": "uint256",
          "name": "amount",
          "type": "uint256"
        }
      ],
      "name": "transfer",
      "outputs": [
        {
          "internalType": "bool",
          "name": "",
          "type": "bool"
        }
      ],
      "stateMutability": "nonpayable",
      "type": "function"
    },
    {
      "inputs": [
        {
          "internalType": "address",
          "name": "from",
          "type": "address"
        },
        {
          "internalType": "address",
          "name": "to",
          "type": "address"
        },
        {
          "internalType": "uint256",
          "name": "amount",
          "type": "uint256"
        }
      ],
      "name": "transferFrom",
      "outputs": [
        {
          "internalType": "bool",
          "name": "",
          "type": "bool"
        }
      ],
      "stateMutability": "nonpayable",
      "type": "function"
    },
    {
      "inputs": [
        {
          "internalType": "address",
          "name": "newOwner",
          "type": "address"
        }
      ],
      "name": "transferOwnership",
      "outputs": [],
      "stateMutability": "nonpayable",
      "type": "function"
    },
    {
      "inputs": [
        {
          "internalType": "address",
          "name": "government",
          "type": "address"
        },
        {
          "internalType": "string",
          "name": "_name",
          "type": "string"
        }
      ],
      "name": "register",
      "outputs": [],
      "stateMutability": "nonpayable",
      "type": "function"
    },
    {
      "inputs": [
        {
          "internalType": "address",
          "name": "to",
          "type": "address"
        },
        {
          "internalType": "uint256",
          "name": "amount",
          "type": "uint256"
        }
      ],
      "name": "request",
      "outputs": [],
      "stateMutability": "payable",
      "type": "function",
      "payable": true
    },
    {
      "inputs": [
        {
          "internalType": "address",
          "name": "to",
          "type": "address"
        }
      ],
      "name": "retrieve",
      "outputs": [],
      "stateMutability": "nonpayable",
      "type": "function"
    },
    {
      "inputs": [
        {
          "internalType": "address",
          "name": "from",
          "type": "address"
        }
      ],
      "name": "accept",
      "outputs": [],
      "stateMutability": "nonpayable",
      "type": "function"
    },
    {
      "inputs": [
        {
          "internalType": "string",
          "name": "_name",
          "type": "string"
        },
        {
          "internalType": "uint256",
          "name": "_amount",
          "type": "uint256"
        }
      ],
      "name": "EventRegister",
      "outputs": [],
      "stateMutability": "nonpayable",
      "type": "function"
    },
    {
      "inputs": [
        {
          "internalType": "uint256",
          "name": "_eventnum",
          "type": "uint256"
        },
        {
          "internalType": "address[]",
          "name": "participants",
          "type": "address[]"
        }
      ],
      "name": "provide_token",
      "outputs": [],
      "stateMutability": "nonpayable",
      "type": "function"
    },
    {
      "inputs": [
        {
          "internalType": "bool",
          "name": "flag",
          "type": "bool"
        },
        {
          "internalType": "string",
          "name": "goodsname",
          "type": "string"
        },
        {
          "internalType": "uint256",
          "name": "rate",
          "type": "uint256"
        }
      ],
      "name": "goodsope",
      "outputs": [],
      "stateMutability": "nonpayable",
      "type": "function"
    },
    {
      "inputs": [
        {
          "internalType": "address",
          "name": "gov",
          "type": "address"
        },
        {
          "internalType": "string",
          "name": "goods",
          "type": "string"
        }
      ],
      "name": "exchange",
      "outputs": [],
      "stateMutability": "nonpayable",
      "type": "function"
    },
    {
      "inputs": [],
      "name": "check",
      "outputs": [
        {
          "internalType": "uint256",
          "name": "",
          "type": "uint256"
        }
      ],
      "stateMutability": "view",
      "type": "function",
      "constant": true
    },
    {
      "inputs": [
        {
          "internalType": "address",
          "name": "acc",
          "type": "address"
        }
      ],
      "name": "checkAccount",
      "outputs": [
        {
          "internalType": "bool",
          "name": "",
          "type": "bool"
        },
        {
          "internalType": "address",
          "name": "",
          "type": "address"
        }
      ],
      "stateMutability": "view",
      "type": "function",
      "constant": true
    }
  ],
  "bytecode": "0x608060405260016006553480156200001657600080fd5b506040518060400160405280600e81526020017f4d6967726174696f6e546f6b656e0000000000000000000000000000000000008152506040518060400160405280600381526020017f4d47540000000000000000000000000000000000000000000000000000000000815250816003908162000094919062000417565b508060049081620000a6919062000417565b505050620000c9620000bd620000cf60201b60201c565b620000d760201b60201c565b620004fe565b600033905090565b6000600560009054906101000a900473ffffffffffffffffffffffffffffffffffffffff16905081600560006101000a81548173ffffffffffffffffffffffffffffffffffffffff021916908373ffffffffffffffffffffffffffffffffffffffff1602179055508173ffffffffffffffffffffffffffffffffffffffff168173ffffffffffffffffffffffffffffffffffffffff167f8be0079c531659141344cd1fd0a4f28419497f9722a3daafe3b4186f6b6457e060405160405180910390a35050565b600081519050919050565b7f4e487b7100000000000000000000000000000000000000000000000000000000600052604160045260246000fd5b7f4e487b7100000000000000000000000000000000000000000000000000000000600052602260045260246000fd5b600060028204905060018216806200021f57607f821691505b602082108103620002355762000234620001d7565b5b50919050565b60008190508160005260206000209050919050565b60006020601f8301049050919050565b600082821b905092915050565b6000600883026200029f7fffffffffffffffffffffffffffffffffffffffffffffffffffffffffffffffff8262000260565b620002ab868362000260565b95508019841693508086168417925050509392505050565b6000819050919050565b6000819050919050565b6000620002f8620002f2620002ec84620002c3565b620002cd565b620002c3565b9050919050565b6000819050919050565b6200031483620002d7565b6200032c6200032382620002ff565b8484546200026d565b825550505050565b600090565b6200034362000334565b6200035081848462000309565b505050565b5b8181101562000378576200036c60008262000339565b60018101905062000356565b5050565b601f821115620003c75762000391816200023b565b6200039c8462000250565b81016020851015620003ac578190505b620003c4620003bb8562000250565b83018262000355565b50505b505050565b600082821c905092915050565b6000620003ec60001984600802620003cc565b1980831691505092915050565b6000620004078383620003d9565b9150826002028217905092915050565b62000422826200019d565b67ffffffffffffffff8111156200043e576200043d620001a8565b5b6200044a825462000206565b620004578282856200037c565b600060209050601f8311600181146200048f57600084156200047a578287015190505b620004868582620003f9565b865550620004f6565b601f1984166200049f866200023b565b60005b82811015620004c957848901518255600182019150602085019450602081019050620004a2565b86831015620004e95784890151620004e5601f891682620003d9565b8355505b6001600288020188555050505b505050505050565b613a63806200050e6000396000f3fe6080604052600436106101815760003560e01c806378596314116100d15780639f0059201161008a578063c8c01a5511610064578063c8c01a5514610593578063d81dc7f6146105af578063dd62ed3e146105d8578063f2fde38b1461061557610181565b80639f005920146104f0578063a457c2d714610519578063a9059cbb1461055657610181565b806378596314146103f457806379cc67901461041d5780637bf5922e146104465780638da5cb5b1461046f578063919840ad1461049a57806395d89b41146104c557610181565b8063313ce5671161013e57806342966c681161011857806342966c681461033957806369921c261461036257806370a08231146103a0578063715018a6146103dd57610181565b8063313ce567146102a857806332434a2e146102d357806339509351146102fc57610181565b806306fdde0314610186578063095ea7b3146101b15780630a79309b146101ee57806312af0c8c1461021757806318160ddd1461024057806323b872dd1461026b575b600080fd5b34801561019257600080fd5b5061019b61063e565b6040516101a8919061245c565b60405180910390f35b3480156101bd57600080fd5b506101d860048036038101906101d39190612526565b6106d0565b6040516101e59190612581565b60405180910390f35b3480156101fa57600080fd5b506102156004803603810190610210919061259c565b6106f3565b005b34801561022357600080fd5b5061023e600480360381019061023991906126fe565b610a07565b005b34801561024c57600080fd5b50610255610aba565b6040516102629190612769565b60405180910390f35b34801561027757600080fd5b50610292600480360381019061028d9190612784565b610ac4565b60405161029f9190612581565b60405180910390f35b3480156102b457600080fd5b506102bd610af3565b6040516102ca91906127f3565b60405180910390f35b3480156102df57600080fd5b506102fa60048036038101906102f591906126fe565b610afc565b005b34801561030857600080fd5b50610323600480360381019061031e9190612526565b610cd2565b6040516103309190612581565b60405180910390f35b34801561034557600080fd5b50610360600480360381019061035b919061280e565b610d09565b005b34801561036e57600080fd5b506103896004803603810190610384919061259c565b610d1d565b60405161039792919061284a565b60405180910390f35b3480156103ac57600080fd5b506103c760048036038101906103c2919061259c565b610d80565b6040516103d49190612769565b60405180910390f35b3480156103e957600080fd5b506103f2610dc8565b005b34801561040057600080fd5b5061041b6004803603810190610416919061293b565b610ddc565b005b34801561042957600080fd5b50610444600480360381019061043f9190612526565b610fee565b005b34801561045257600080fd5b5061046d60048036038101906104689190612997565b61100e565b005b34801561047b57600080fd5b506104846111b8565b60405161049191906129f3565b60405180910390f35b3480156104a657600080fd5b506104af6111e2565b6040516104bc9190612769565b60405180910390f35b3480156104d157600080fd5b506104da6111ea565b6040516104e7919061245c565b60405180910390f35b3480156104fc57600080fd5b506105176004803603810190610512919061259c565b61127c565b005b34801561052557600080fd5b50610540600480360381019061053b9190612526565b611520565b60405161054d9190612581565b60405180910390f35b34801561056257600080fd5b5061057d60048036038101906105789190612526565b611597565b60405161058a9190612581565b60405180910390f35b6105ad60048036038101906105a89190612526565b6115ba565b005b3480156105bb57600080fd5b506105d660048036038101906105d19190612a3a565b6117ff565b005b3480156105e457600080fd5b506105ff60048036038101906105fa9190612aa9565b611959565b60405161060c9190612769565b60405180910390f35b34801561062157600080fd5b5061063c6004803603810190610637919061259c565b6119e0565b005b60606003805461064d90612b18565b80601f016020809104026020016040519081016040528092919081815260200182805461067990612b18565b80156106c65780601f1061069b576101008083540402835291602001916106c6565b820191906000526020600020905b8154815290600101906020018083116106a957829003601f168201915b5050505050905090565b6000806106db611a63565b90506106e8818585611a6b565b600191505092915050565b6000600760003373ffffffffffffffffffffffffffffffffffffffff1673ffffffffffffffffffffffffffffffffffffffff1681526020019081526020016000205403610775576040517f08c379a000000000000000000000000000000000000000000000000000000000815260040161076c90612b95565b60405180910390fd5b62093a80600960003373ffffffffffffffffffffffffffffffffffffffff1673ffffffffffffffffffffffffffffffffffffffff16815260200190815260200160002060008373ffffffffffffffffffffffffffffffffffffffff1673ffffffffffffffffffffffffffffffffffffffff168152602001908152602001600020541015610837576040517f08c379a000000000000000000000000000000000000000000000000000000000815260040161082e90612c01565b60405180910390fd5b6000600a60003373ffffffffffffffffffffffffffffffffffffffff1673ffffffffffffffffffffffffffffffffffffffff16815260200190815260200160002060008373ffffffffffffffffffffffffffffffffffffffff1673ffffffffffffffffffffffffffffffffffffffff1681526020019081526020016000205490503373ffffffffffffffffffffffffffffffffffffffff166108fc829081150290604051600060405180830381858888f193505050501580156108fe573d6000803e3d6000fd5b506000600a60003373ffffffffffffffffffffffffffffffffffffffff1673ffffffffffffffffffffffffffffffffffffffff16815260200190815260200160002060008473ffffffffffffffffffffffffffffffffffffffff1673ffffffffffffffffffffffffffffffffffffffff168152602001908152602001600020819055506000600960003373ffffffffffffffffffffffffffffffffffffffff1673ffffffffffffffffffffffffffffffffffffffff16815260200190815260200160002060008473ffffffffffffffffffffffffffffffffffffffff1673ffffffffffffffffffffffffffffffffffffffff168152602001908152602001600020819055505050565b6000600c60008473ffffffffffffffffffffffffffffffffffffffff1673ffffffffffffffffffffffffffffffffffffffff16815260200190815260200160002082604051610a569190612c5d565b908152602001604051809103902054905060008111610aaa576040517f08c379a0000000000000000000000000000000000000000000000000000000008152600401610aa190612cc0565b60405180910390fd5b610ab48382611597565b50505050565b6000600254905090565b600080610acf611a63565b9050610adc858285611c34565b610ae7858585611cc0565b60019150509392505050565b60006012905090565b610b04611f36565b6000600760008473ffffffffffffffffffffffffffffffffffffffff1673ffffffffffffffffffffffffffffffffffffffff1681526020019081526020016000205414610b86576040517f08c379a0000000000000000000000000000000000000000000000000000000008152600401610b7d90612d2c565b60405180910390fd5b600654600760008473ffffffffffffffffffffffffffffffffffffffff1673ffffffffffffffffffffffffffffffffffffffff16815260200190815260200160002081905550600060405180608001604052808473ffffffffffffffffffffffffffffffffffffffff168152602001838152602001600654815260200160008152509050600d81908060018154018082558091505060019003906000526020600020906004020160009091909190915060008201518160000160006101000a81548173ffffffffffffffffffffffffffffffffffffffff021916908373ffffffffffffffffffffffffffffffffffffffff1602179055506020820151816001019081610c929190612ef8565b506040820151816002015560608201518160030155505060066000815480929190610cbc90612ff9565b9190505550610ccd836103e8611fb4565b505050565b600080610cdd611a63565b9050610cfe818585610cef8589611959565b610cf99190613041565b611a6b565b600191505092915050565b610d1a610d14611a63565b82611fca565b50565b6000806000600760008573ffffffffffffffffffffffffffffffffffffffff1673ffffffffffffffffffffffffffffffffffffffff1681526020019081526020016000205403610d735760018391509150610d7b565b600083915091505b915091565b60008060008373ffffffffffffffffffffffffffffffffffffffff1673ffffffffffffffffffffffffffffffffffffffff168152602001908152602001600020549050919050565b610dd0611f36565b610dda6000612197565b565b6000600760003373ffffffffffffffffffffffffffffffffffffffff1673ffffffffffffffffffffffffffffffffffffffff1681526020019081526020016000205403610e5e576040517f08c379a0000000000000000000000000000000000000000000000000000000008152600401610e5590612b95565b60405180910390fd5b6000600b60003373ffffffffffffffffffffffffffffffffffffffff1673ffffffffffffffffffffffffffffffffffffffff1681526020019081526020016000206000848152602001908152602001600020604051806040016040529081600082018054610ecb90612b18565b80601f0160208091040260200160405190810160405280929190818152602001828054610ef790612b18565b8015610f445780601f10610f1957610100808354040283529160200191610f44565b820191906000526020600020905b815481529060010190602001808311610f2757829003601f168201915b505050505081526020016001820154815250509050600081602001511015610fa1576040517f08c379a0000000000000000000000000000000000000000000000000000000008152600401610f98906130c1565b60405180910390fd5b60005b8251811015610fe857610fd5838281518110610fc357610fc26130e1565b5b6020026020010151836020015161225d565b8080610fe090612ff9565b915050610fa4565b50505050565b61100082610ffa611a63565b83611c34565b61100a8282611fca565b5050565b6000600760003373ffffffffffffffffffffffffffffffffffffffff1673ffffffffffffffffffffffffffffffffffffffff1681526020019081526020016000205403611090576040517f08c379a000000000000000000000000000000000000000000000000000000000815260040161108790612b95565b60405180910390fd5b600060405180604001604052808481526020018381525090506000600d6001600760003373ffffffffffffffffffffffffffffffffffffffff1673ffffffffffffffffffffffffffffffffffffffff168152602001908152602001600020546110f99190613110565b8154811061110a576111096130e1565b5b9060005260206000209060040201905060008160030154905082600b60003373ffffffffffffffffffffffffffffffffffffffff1673ffffffffffffffffffffffffffffffffffffffff168152602001908152602001600020600083815260200190815260200160002060008201518160000190816111899190612ef8565b50602082015181600101559050508160030160008154809291906111ac90612ff9565b91905055505050505050565b6000600560009054906101000a900473ffffffffffffffffffffffffffffffffffffffff16905090565b600047905090565b6060600480546111f990612b18565b80601f016020809104026020016040519081016040528092919081815260200182805461122590612b18565b80156112725780601f1061124757610100808354040283529160200191611272565b820191906000526020600020905b81548152906001019060200180831161125557829003601f168201915b5050505050905090565b6000600760003373ffffffffffffffffffffffffffffffffffffffff1673ffffffffffffffffffffffffffffffffffffffff16815260200190815260200160002054036112fe576040517f08c379a00000000000000000000000000000000000000000000000000000000081526004016112f590612b95565b60405180910390fd5b6000600a60008373ffffffffffffffffffffffffffffffffffffffff1673ffffffffffffffffffffffffffffffffffffffff16815260200190815260200160002060003373ffffffffffffffffffffffffffffffffffffffff1673ffffffffffffffffffffffffffffffffffffffff168152602001908152602001600020549050600081036113c2576040517f08c379a00000000000000000000000000000000000000000000000000000000081526004016113b990613190565b60405180910390fd5b806113cc33610d80565b101561140d576040517f08c379a0000000000000000000000000000000000000000000000000000000008152600401611404906131fc565b60405180910390fd5b6114178282611597565b506000600a60008473ffffffffffffffffffffffffffffffffffffffff1673ffffffffffffffffffffffffffffffffffffffff16815260200190815260200160002060003373ffffffffffffffffffffffffffffffffffffffff1673ffffffffffffffffffffffffffffffffffffffff168152602001908152602001600020819055506000600960008473ffffffffffffffffffffffffffffffffffffffff1673ffffffffffffffffffffffffffffffffffffffff16815260200190815260200160002060003373ffffffffffffffffffffffffffffffffffffffff1673ffffffffffffffffffffffffffffffffffffffff168152602001908152602001600020819055505050565b60008061152b611a63565b905060006115398286611959565b90508381101561157e576040517f08c379a00000000000000000000000000000000000000000000000000000000081526004016115759061328e565b60405180910390fd5b61158b8286868403611a6b565b60019250505092915050565b6000806115a2611a63565b90506115af818585611cc0565b600191505092915050565b6000600760003373ffffffffffffffffffffffffffffffffffffffff1673ffffffffffffffffffffffffffffffffffffffff168152602001908152602001600020540361163c576040517f08c379a000000000000000000000000000000000000000000000000000000000815260040161163390612b95565b60405180910390fd5b600060648261164b91906132dd565b1461168b576040517f08c379a00000000000000000000000000000000000000000000000000000000081526004016116829061335a565b60405180910390fd5b600060648261169a919061337a565b90506000429050670de0b6b3a7640000826116b591906133ab565b3410156116f7576040517f08c379a00000000000000000000000000000000000000000000000000000000081526004016116ee90613439565b60405180910390fd5b34600a60003373ffffffffffffffffffffffffffffffffffffffff1673ffffffffffffffffffffffffffffffffffffffff16815260200190815260200160002060008673ffffffffffffffffffffffffffffffffffffffff1673ffffffffffffffffffffffffffffffffffffffff1681526020019081526020016000208190555080600960003373ffffffffffffffffffffffffffffffffffffffff1673ffffffffffffffffffffffffffffffffffffffff16815260200190815260200160002060008673ffffffffffffffffffffffffffffffffffffffff1673ffffffffffffffffffffffffffffffffffffffff1681526020019081526020016000208190555050505050565b6000600760003373ffffffffffffffffffffffffffffffffffffffff1673ffffffffffffffffffffffffffffffffffffffff1681526020019081526020016000205403611881576040517f08c379a000000000000000000000000000000000000000000000000000000000815260040161187890612b95565b60405180910390fd5b60011515831515036118f25780600c60003373ffffffffffffffffffffffffffffffffffffffff1673ffffffffffffffffffffffffffffffffffffffff168152602001908152602001600020836040516118db9190612c5d565b908152602001604051809103902081905550611954565b6000600c60003373ffffffffffffffffffffffffffffffffffffffff1673ffffffffffffffffffffffffffffffffffffffff168152602001908152602001600020836040516119419190612c5d565b9081526020016040518091039020819055505b505050565b6000600160008473ffffffffffffffffffffffffffffffffffffffff1673ffffffffffffffffffffffffffffffffffffffff16815260200190815260200160002060008373ffffffffffffffffffffffffffffffffffffffff1673ffffffffffffffffffffffffffffffffffffffff16815260200190815260200160002054905092915050565b6119e8611f36565b600073ffffffffffffffffffffffffffffffffffffffff168173ffffffffffffffffffffffffffffffffffffffff1603611a57576040517f08c379a0000000000000000000000000000000000000000000000000000000008152600401611a4e906134cb565b60405180910390fd5b611a6081612197565b50565b600033905090565b600073ffffffffffffffffffffffffffffffffffffffff168373ffffffffffffffffffffffffffffffffffffffff1603611ada576040517f08c379a0000000000000000000000000000000000000000000000000000000008152600401611ad19061355d565b60405180910390fd5b600073ffffffffffffffffffffffffffffffffffffffff168273ffffffffffffffffffffffffffffffffffffffff1603611b49576040517f08c379a0000000000000000000000000000000000000000000000000000000008152600401611b40906135ef565b60405180910390fd5b80600160008573ffffffffffffffffffffffffffffffffffffffff1673ffffffffffffffffffffffffffffffffffffffff16815260200190815260200160002060008473ffffffffffffffffffffffffffffffffffffffff1673ffffffffffffffffffffffffffffffffffffffff168152602001908152602001600020819055508173ffffffffffffffffffffffffffffffffffffffff168373ffffffffffffffffffffffffffffffffffffffff167f8c5be1e5ebec7d5bd14f71427d1e84f3dd0314c0f7b2291e5b200ac8c7c3b92583604051611c279190612769565b60405180910390a3505050565b6000611c408484611959565b90507fffffffffffffffffffffffffffffffffffffffffffffffffffffffffffffffff8114611cba5781811015611cac576040517f08c379a0000000000000000000000000000000000000000000000000000000008152600401611ca39061365b565b60405180910390fd5b611cb98484848403611a6b565b5b50505050565b600073ffffffffffffffffffffffffffffffffffffffff168373ffffffffffffffffffffffffffffffffffffffff1603611d2f576040517f08c379a0000000000000000000000000000000000000000000000000000000008152600401611d26906136ed565b60405180910390fd5b600073ffffffffffffffffffffffffffffffffffffffff168273ffffffffffffffffffffffffffffffffffffffff1603611d9e576040517f08c379a0000000000000000000000000000000000000000000000000000000008152600401611d959061377f565b60405180910390fd5b611da983838361226c565b60008060008573ffffffffffffffffffffffffffffffffffffffff1673ffffffffffffffffffffffffffffffffffffffff16815260200190815260200160002054905081811015611e2f576040517f08c379a0000000000000000000000000000000000000000000000000000000008152600401611e2690613811565b60405180910390fd5b8181036000808673ffffffffffffffffffffffffffffffffffffffff1673ffffffffffffffffffffffffffffffffffffffff16815260200190815260200160002081905550816000808573ffffffffffffffffffffffffffffffffffffffff1673ffffffffffffffffffffffffffffffffffffffff168152602001908152602001600020600082825401925050819055508273ffffffffffffffffffffffffffffffffffffffff168473ffffffffffffffffffffffffffffffffffffffff167fddf252ad1be2c89b69c2b068fc378daa952ba7f163c4a11628f55a4df523b3ef84604051611f1d9190612769565b60405180910390a3611f30848484612271565b50505050565b611f3e611a63565b73ffffffffffffffffffffffffffffffffffffffff16611f5c6111b8565b73ffffffffffffffffffffffffffffffffffffffff1614611fb2576040517f08c379a0000000000000000000000000000000000000000000000000000000008152600401611fa99061387d565b60405180910390fd5b565b611fbc611f36565b611fc68282612276565b5050565b600073ffffffffffffffffffffffffffffffffffffffff168273ffffffffffffffffffffffffffffffffffffffff1603612039576040517f08c379a00000000000000000000000000000000000000000000000000000000081526004016120309061390f565b60405180910390fd5b6120458260008361226c565b60008060008473ffffffffffffffffffffffffffffffffffffffff1673ffffffffffffffffffffffffffffffffffffffff168152602001908152602001600020549050818110156120cb576040517f08c379a00000000000000000000000000000000000000000000000000000000081526004016120c2906139a1565b60405180910390fd5b8181036000808573ffffffffffffffffffffffffffffffffffffffff1673ffffffffffffffffffffffffffffffffffffffff1681526020019081526020016000208190555081600260008282540392505081905550600073ffffffffffffffffffffffffffffffffffffffff168373ffffffffffffffffffffffffffffffffffffffff167fddf252ad1be2c89b69c2b068fc378daa952ba7f163c4a11628f55a4df523b3ef8460405161217e9190612769565b60405180910390a361219283600084612271565b505050565b6000600560009054906101000a900473ffffffffffffffffffffffffffffffffffffffff16905081600560006101000a81548173ffffffffffffffffffffffffffffffffffffffff021916908373ffffffffffffffffffffffffffffffffffffffff1602179055508173ffffffffffffffffffffffffffffffffffffffff168173ffffffffffffffffffffffffffffffffffffffff167f8be0079c531659141344cd1fd0a4f28419497f9722a3daafe3b4186f6b6457e060405160405180910390a35050565b6122678282611597565b505050565b505050565b505050565b600073ffffffffffffffffffffffffffffffffffffffff168273ffffffffffffffffffffffffffffffffffffffff16036122e5576040517f08c379a00000000000000000000000000000000000000000000000000000000081526004016122dc90613a0d565b60405180910390fd5b6122f16000838361226c565b80600260008282546123039190613041565b92505081905550806000808473ffffffffffffffffffffffffffffffffffffffff1673ffffffffffffffffffffffffffffffffffffffff168152602001908152602001600020600082825401925050819055508173ffffffffffffffffffffffffffffffffffffffff16600073ffffffffffffffffffffffffffffffffffffffff167fddf252ad1be2c89b69c2b068fc378daa952ba7f163c4a11628f55a4df523b3ef836040516123b49190612769565b60405180910390a36123c860008383612271565b5050565b600081519050919050565b600082825260208201905092915050565b60005b838110156124065780820151818401526020810190506123eb565b60008484015250505050565b6000601f19601f8301169050919050565b600061242e826123cc565b61243881856123d7565b93506124488185602086016123e8565b61245181612412565b840191505092915050565b600060208201905081810360008301526124768184612423565b905092915050565b6000604051905090565b600080fd5b600080fd5b600073ffffffffffffffffffffffffffffffffffffffff82169050919050565b60006124bd82612492565b9050919050565b6124cd816124b2565b81146124d857600080fd5b50565b6000813590506124ea816124c4565b92915050565b6000819050919050565b612503816124f0565b811461250e57600080fd5b50565b600081359050612520816124fa565b92915050565b6000806040838503121561253d5761253c612488565b5b600061254b858286016124db565b925050602061255c85828601612511565b9150509250929050565b60008115159050919050565b61257b81612566565b82525050565b60006020820190506125966000830184612572565b92915050565b6000602082840312156125b2576125b1612488565b5b60006125c0848285016124db565b91505092915050565b600080fd5b600080fd5b7f4e487b7100000000000000000000000000000000000000000000000000000000600052604160045260246000fd5b61260b82612412565b810181811067ffffffffffffffff8211171561262a576126296125d3565b5b80604052505050565b600061263d61247e565b90506126498282612602565b919050565b600067ffffffffffffffff821115612669576126686125d3565b5b61267282612412565b9050602081019050919050565b82818337600083830152505050565b60006126a161269c8461264e565b612633565b9050828152602081018484840111156126bd576126bc6125ce565b5b6126c884828561267f565b509392505050565b600082601f8301126126e5576126e46125c9565b5b81356126f584826020860161268e565b91505092915050565b6000806040838503121561271557612714612488565b5b6000612723858286016124db565b925050602083013567ffffffffffffffff8111156127445761274361248d565b5b612750858286016126d0565b9150509250929050565b612763816124f0565b82525050565b600060208201905061277e600083018461275a565b92915050565b60008060006060848603121561279d5761279c612488565b5b60006127ab868287016124db565b93505060206127bc868287016124db565b92505060406127cd86828701612511565b9150509250925092565b600060ff82169050919050565b6127ed816127d7565b82525050565b600060208201905061280860008301846127e4565b92915050565b60006020828403121561282457612823612488565b5b600061283284828501612511565b91505092915050565b612844816124b2565b82525050565b600060408201905061285f6000830185612572565b61286c602083018461283b565b9392505050565b600067ffffffffffffffff82111561288e5761288d6125d3565b5b602082029050602081019050919050565b600080fd5b60006128b76128b284612873565b612633565b905080838252602082019050602084028301858111156128da576128d961289f565b5b835b8181101561290357806128ef88826124db565b8452602084019350506020810190506128dc565b5050509392505050565b600082601f830112612922576129216125c9565b5b81356129328482602086016128a4565b91505092915050565b6000806040838503121561295257612951612488565b5b600061296085828601612511565b925050602083013567ffffffffffffffff8111156129815761298061248d565b5b61298d8582860161290d565b9150509250929050565b600080604083850312156129ae576129ad612488565b5b600083013567ffffffffffffffff8111156129cc576129cb61248d565b5b6129d8858286016126d0565b92505060206129e985828601612511565b9150509250929050565b6000602082019050612a08600083018461283b565b92915050565b612a1781612566565b8114612a2257600080fd5b50565b600081359050612a3481612a0e565b92915050565b600080600060608486031215612a5357612a52612488565b5b6000612a6186828701612a25565b935050602084013567ffffffffffffffff811115612a8257612a8161248d565b5b612a8e868287016126d0565b9250506040612a9f86828701612511565b9150509250925092565b60008060408385031215612ac057612abf612488565b5b6000612ace858286016124db565b9250506020612adf858286016124db565b9150509250929050565b7f4e487b7100000000000000000000000000000000000000000000000000000000600052602260045260246000fd5b60006002820490506001821680612b3057607f821691505b602082108103612b4357612b42612ae9565b5b50919050565b7f796f7520617265206e6f7420676f7665726e6d656e7400000000000000000000600082015250565b6000612b7f6016836123d7565b9150612b8a82612b49565b602082019050919050565b60006020820190508181036000830152612bae81612b72565b9050919050565b7f74696d65206973206c656167616c000000000000000000000000000000000000600082015250565b6000612beb600e836123d7565b9150612bf682612bb5565b602082019050919050565b60006020820190508181036000830152612c1a81612bde565b9050919050565b600081905092915050565b6000612c37826123cc565b612c418185612c21565b9350612c518185602086016123e8565b80840191505092915050565b6000612c698284612c2c565b915081905092915050565b7f676f6f6473206973206e6f7420646566696e6400000000000000000000000000600082015250565b6000612caa6013836123d7565b9150612cb582612c74565b602082019050919050565b60006020820190508181036000830152612cd981612c9d565b9050919050565b7f616c726561647920726567697374657265736400000000000000000000000000600082015250565b6000612d166013836123d7565b9150612d2182612ce0565b602082019050919050565b60006020820190508181036000830152612d4581612d09565b9050919050565b60008190508160005260206000209050919050565b60006020601f8301049050919050565b600082821b905092915050565b600060088302612dae7fffffffffffffffffffffffffffffffffffffffffffffffffffffffffffffffff82612d71565b612db88683612d71565b95508019841693508086168417925050509392505050565b6000819050919050565b6000612df5612df0612deb846124f0565b612dd0565b6124f0565b9050919050565b6000819050919050565b612e0f83612dda565b612e23612e1b82612dfc565b848454612d7e565b825550505050565b600090565b612e38612e2b565b612e43818484612e06565b505050565b5b81811015612e6757612e5c600082612e30565b600181019050612e49565b5050565b601f821115612eac57612e7d81612d4c565b612e8684612d61565b81016020851015612e95578190505b612ea9612ea185612d61565b830182612e48565b50505b505050565b600082821c905092915050565b6000612ecf60001984600802612eb1565b1980831691505092915050565b6000612ee88383612ebe565b9150826002028217905092915050565b612f01826123cc565b67ffffffffffffffff811115612f1a57612f196125d3565b5b612f248254612b18565b612f2f828285612e6b565b600060209050601f831160018114612f625760008415612f50578287015190505b612f5a8582612edc565b865550612fc2565b601f198416612f7086612d4c565b60005b82811015612f9857848901518255600182019150602085019450602081019050612f73565b86831015612fb55784890151612fb1601f891682612ebe565b8355505b6001600288020188555050505b505050505050565b7f4e487b7100000000000000000000000000000000000000000000000000000000600052601160045260246000fd5b6000613004826124f0565b91507fffffffffffffffffffffffffffffffffffffffffffffffffffffffffffffffff820361303657613035612fca565b5b600182019050919050565b600061304c826124f0565b9150613057836124f0565b925082820190508082111561306f5761306e612fca565b5b92915050565b7f6576656e74206973206e6f7420646566696e6564000000000000000000000000600082015250565b60006130ab6014836123d7565b91506130b682613075565b602082019050919050565b600060208201905081810360008301526130da8161309e565b9050919050565b7f4e487b7100000000000000000000000000000000000000000000000000000000600052603260045260246000fd5b600061311b826124f0565b9150613126836124f0565b925082820390508181111561313e5761313d612fca565b5b92915050565b7f72657175657374206973206e6f7420666f756e64000000000000000000000000600082015250565b600061317a6014836123d7565b915061318582613144565b602082019050919050565b600060208201905081810360008301526131a98161316d565b9050919050565b7f535452414e474500000000000000000000000000000000000000000000000000600082015250565b60006131e66007836123d7565b91506131f1826131b0565b602082019050919050565b60006020820190508181036000830152613215816131d9565b9050919050565b7f45524332303a2064656372656173656420616c6c6f77616e63652062656c6f7760008201527f207a65726f000000000000000000000000000000000000000000000000000000602082015250565b60006132786025836123d7565b91506132838261321c565b604082019050919050565b600060208201905081810360008301526132a78161326b565b9050919050565b7f4e487b7100000000000000000000000000000000000000000000000000000000600052601260045260246000fd5b60006132e8826124f0565b91506132f3836124f0565b925082613303576133026132ae565b5b828206905092915050565b7f496e636f727265637420756e6974000000000000000000000000000000000000600082015250565b6000613344600e836123d7565b915061334f8261330e565b602082019050919050565b6000602082019050818103600083015261337381613337565b9050919050565b6000613385826124f0565b9150613390836124f0565b9250826133a05761339f6132ae565b5b828204905092915050565b60006133b6826124f0565b91506133c1836124f0565b92508282026133cf816124f0565b915082820484148315176133e6576133e5612fca565b5b5092915050565b7f6e6f742073756666696369656e742076616c7565000000000000000000000000600082015250565b60006134236014836123d7565b915061342e826133ed565b602082019050919050565b6000602082019050818103600083015261345281613416565b9050919050565b7f4f776e61626c653a206e6577206f776e657220697320746865207a65726f206160008201527f6464726573730000000000000000000000000000000000000000000000000000602082015250565b60006134b56026836123d7565b91506134c082613459565b604082019050919050565b600060208201905081810360008301526134e4816134a8565b9050919050565b7f45524332303a20617070726f76652066726f6d20746865207a65726f2061646460008201527f7265737300000000000000000000000000000000000000000000000000000000602082015250565b60006135476024836123d7565b9150613552826134eb565b604082019050919050565b600060208201905081810360008301526135768161353a565b9050919050565b7f45524332303a20617070726f766520746f20746865207a65726f20616464726560008201527f7373000000000000000000000000000000000000000000000000000000000000602082015250565b60006135d96022836123d7565b91506135e48261357d565b604082019050919050565b60006020820190508181036000830152613608816135cc565b9050919050565b7f45524332303a20696e73756666696369656e7420616c6c6f77616e6365000000600082015250565b6000613645601d836123d7565b91506136508261360f565b602082019050919050565b6000602082019050818103600083015261367481613638565b9050919050565b7f45524332303a207472616e736665722066726f6d20746865207a65726f20616460008201527f6472657373000000000000000000000000000000000000000000000000000000602082015250565b60006136d76025836123d7565b91506136e28261367b565b604082019050919050565b60006020820190508181036000830152613706816136ca565b9050919050565b7f45524332303a207472616e7366657220746f20746865207a65726f206164647260008201527f6573730000000000000000000000000000000000000000000000000000000000602082015250565b60006137696023836123d7565b91506137748261370d565b604082019050919050565b600060208201905081810360008301526137988161375c565b9050919050565b7f45524332303a207472616e7366657220616d6f756e742065786365656473206260008201527f616c616e63650000000000000000000000000000000000000000000000000000602082015250565b60006137fb6026836123d7565b91506138068261379f565b604082019050919050565b6000602082019050818103600083015261382a816137ee565b9050919050565b7f4f776e61626c653a2063616c6c6572206973206e6f7420746865206f776e6572600082015250565b60006138676020836123d7565b915061387282613831565b602082019050919050565b600060208201905081810360008301526138968161385a565b9050919050565b7f45524332303a206275726e2066726f6d20746865207a65726f2061646472657360008201527f7300000000000000000000000000000000000000000000000000000000000000602082015250565b60006138f96021836123d7565b91506139048261389d565b604082019050919050565b60006020820190508181036000830152613928816138ec565b9050919050565b7f45524332303a206275726e20616d6f756e7420657863656564732062616c616e60008201527f6365000000000000000000000000000000000000000000000000000000000000602082015250565b600061398b6022836123d7565b91506139968261392f565b604082019050919050565b600060208201905081810360008301526139ba8161397e565b9050919050565b7f45524332303a206d696e7420746f20746865207a65726f206164647265737300600082015250565b60006139f7601f836123d7565b9150613a02826139c1565b602082019050919050565b60006020820190508181036000830152613a26816139ea565b905091905056fea264697066735822122081f53cc5d8372b704b0e9608c47e1e9ad64791d7659f126ef579c87813b6ed3264736f6c63430008110033",
  "immutableReferences": {},
  "source": "// SPDX-License-Identifier: MIT\npragma solidity ^0.8.9;\n\nimport \"@openzeppelin/contracts/token/ERC20/ERC20.sol\";\nimport \"@openzeppelin/contracts/token/ERC20/extensions/ERC20Burnable.sol\";\nimport \"@openzeppelin/contracts/access/Ownable.sol\";\n\ncontract MigrationToken is ERC20, ERC20Burnable, Ownable {\n    uint256 ID = 1;\n    mapping (address => uint256) GovernmentList;\n    mapping (address => bool) User;\n    mapping (address => mapping (address => uint256)) ExpireTime;\n    mapping (address => mapping (address => uint256)) RentList;\n    mapping (address => mapping (uint256 => Event)) EventList;\n    mapping (address => mapping (string => uint256)) Goods;\n    struct Gov {\n        address Address;\n        string name;\n        uint256 id;\n        uint256 eventNumber;\n    }\n    struct Event {\n        string name;\n        uint _reward;\n    }\n\n    Gov[] localgoverment;\n\n    constructor() ERC20(\"MigrationToken\", \"MGT\") {}\n\n    modifier govOnly() {\n        require(GovernmentList[msg.sender] != 0, \"you are not government\");\n        _;\n    }\n\n    function mint(address to, uint256 amount) internal onlyOwner {\n        _mint(to, amount);\n    }\n    //\n    function register(address government,string memory _name) public onlyOwner() {\n        require(GovernmentList[government] == 0, \"already registeresd\");\n        GovernmentList[government] = ID;\n        Gov memory LocalGoverment = Gov(government, _name, ID, 0);\n        localgoverment.push(LocalGoverment);\n        ID ++;\n        mint(government, 1000);\n    }\n    //\n    function request(address to, uint256 amount) public payable govOnly() {\n        require(amount%100 == 0, \"Incorrect unit\");\n        uint256 tmp = amount / 100;\n        uint256 time = block.timestamp;\n        require(msg.value >= tmp*(1 ether),\"not sufficient value\");\n        RentList[msg.sender][to] = msg.value;\n        ExpireTime[msg.sender][to] = time;\n    }\n    //\n    function retrieve(address to) public govOnly() {\n        require(ExpireTime[msg.sender][to] >= 7 days, \"time is leagal\");\n        uint256 Balance = RentList[msg.sender][to];\n        payable(msg.sender).transfer(Balance);\n        RentList[msg.sender][to] = 0;\n        ExpireTime[msg.sender][to] = 0;\n    }\n    //\n    function accept(address from) public govOnly() {\n        uint256 tmp = RentList[from][msg.sender];\n        require(tmp != 0,\"request is not found\");\n        require(balanceOf(msg.sender) >= tmp, \"STRANGE\");\n        transfer(from, tmp);\n        RentList[from][msg.sender] = 0;\n        ExpireTime[from][msg.sender] = 0;\n    }\n\n    //\n    function EventRegister(string memory _name, uint256 _amount) public govOnly() {\n        Event memory newEvent = Event(_name, _amount);\n        Gov storage tmp = localgoverment[GovernmentList[msg.sender]-1];\n        uint256 id = tmp.eventNumber;\n        EventList[msg.sender][id] = newEvent;\n        tmp.eventNumber ++;\n    }\n\n    //\n    function reward(address participant, uint256 _reward) internal {\n        transfer(participant, _reward);\n    }\n\n    function provide_token(uint256 _eventnum, address[] memory participants) public govOnly() {\n        Event memory newEvent = EventList[msg.sender][_eventnum];\n        require(newEvent._reward >= 0, \"event is not defined\");\n        for(uint i=0; i<participants.length; i++){\n            reward(participants[i], newEvent._reward);\n        }\n    }\n\n    //\n    function goodsope(bool flag, string memory goodsname, uint256 rate) public govOnly {\n        if (flag == true) {\n            Goods[msg.sender][goodsname] = rate;\n        }\n        else {\n            Goods[msg.sender][goodsname] = 0;\n        }\n    }\n\n    //\n    function exchange(address gov, string memory goods) public {\n        uint256 amount = Goods[gov][goods];\n        require(amount > 0, \"goods is not defind\");\n        transfer(gov, amount);\n    }\n\n    function check() view public returns(uint256) {\n        return address(this).balance;\n    }\n\n    function checkAccount(address acc) view public returns(bool,address) {\n      if (GovernmentList[acc] == 0) {\n        return (true,acc);\n      }else {\n        return (false, acc);\n      }\n    }\n}",
  "sourcePath": "C:\\Users\\81808\\OneDrive\\\\Migfront\\contracts\\MigratonToken.sol",
  "compiler": {
    "name": "solc",
    "version": "0.8.17+commit.8df45f5f.Emscripten.clang"
  },
  "schemaVersion": "3.4.10",
  "updatedAt": "2023-07-21T06:09:40.311Z",
  "networkType": "ethereum",
  "devdoc": {
    "kind": "dev",
    "methods": {
      "allowance(address,address)": {
        "details": "See {IERC20-allowance}."
      },
      "approve(address,uint256)": {
        "details": "See {IERC20-approve}. NOTE: If `amount` is the maximum `uint256`, the allowance is not updated on `transferFrom`. This is semantically equivalent to an infinite approval. Requirements: - `spender` cannot be the zero address."
      },
      "balanceOf(address)": {
        "details": "See {IERC20-balanceOf}."
      },
      "burn(uint256)": {
        "details": "Destroys `amount` tokens from the caller. See {ERC20-_burn}."
      },
      "burnFrom(address,uint256)": {
        "details": "Destroys `amount` tokens from `account`, deducting from the caller's allowance. See {ERC20-_burn} and {ERC20-allowance}. Requirements: - the caller must have allowance for ``accounts``'s tokens of at least `amount`."
      },
      "decimals()": {
        "details": "Returns the number of decimals used to get its user representation. For example, if `decimals` equals `2`, a balance of `505` tokens should be displayed to a user as `5.05` (`505 / 10 ** 2`). Tokens usually opt for a value of 18, imitating the relationship between Ether and Wei. This is the default value returned by this function, unless it's overridden. NOTE: This information is only used for _display_ purposes: it in no way affects any of the arithmetic of the contract, including {IERC20-balanceOf} and {IERC20-transfer}."
      },
      "decreaseAllowance(address,uint256)": {
        "details": "Atomically decreases the allowance granted to `spender` by the caller. This is an alternative to {approve} that can be used as a mitigation for problems described in {IERC20-approve}. Emits an {Approval} event indicating the updated allowance. Requirements: - `spender` cannot be the zero address. - `spender` must have allowance for the caller of at least `subtractedValue`."
      },
      "increaseAllowance(address,uint256)": {
        "details": "Atomically increases the allowance granted to `spender` by the caller. This is an alternative to {approve} that can be used as a mitigation for problems described in {IERC20-approve}. Emits an {Approval} event indicating the updated allowance. Requirements: - `spender` cannot be the zero address."
      },
      "name()": {
        "details": "Returns the name of the token."
      },
      "owner()": {
        "details": "Returns the address of the current owner."
      },
      "renounceOwnership()": {
        "details": "Leaves the contract without owner. It will not be possible to call `onlyOwner` functions. Can only be called by the current owner. NOTE: Renouncing ownership will leave the contract without an owner, thereby disabling any functionality that is only available to the owner."
      },
      "symbol()": {
        "details": "Returns the symbol of the token, usually a shorter version of the name."
      },
      "totalSupply()": {
        "details": "See {IERC20-totalSupply}."
      },
      "transfer(address,uint256)": {
        "details": "See {IERC20-transfer}. Requirements: - `to` cannot be the zero address. - the caller must have a balance of at least `amount`."
      },
      "transferFrom(address,address,uint256)": {
        "details": "See {IERC20-transferFrom}. Emits an {Approval} event indicating the updated allowance. This is not required by the EIP. See the note at the beginning of {ERC20}. NOTE: Does not update the allowance if the current allowance is the maximum `uint256`. Requirements: - `from` and `to` cannot be the zero address. - `from` must have a balance of at least `amount`. - the caller must have allowance for ``from``'s tokens of at least `amount`."
      },
      "transferOwnership(address)": {
        "details": "Transfers ownership of the contract to a new account (`newOwner`). Can only be called by the current owner."
      }
    },
    "version": 1
  },
  "userdoc": {
    "kind": "user",
    "methods": {},
    "version": 1
  }
}